:020000040800F2
:10000000E8200020F51E0008FD010008FF0100089F
:1000100001020008030200080502000800000000B9
:1000200000000000000000000000000007020008BF
:1000300009020008000000000B020008F32300087A
:100040000F1F00080F1F00080F1F00080F1F0008D8
:100050000F1F00080F1F00080F1F00080F1F0008C8
:100060000F1F00080F1F00080F1F00080F1F0008B8
:100070000F1F00080F1F00080F1F00080F1F0008A8
:100080000F1F00080F1F00080F1F00080F1F000898
:100090000F1F00080F1F00080F1F00080F1F000888
:1000A0000F1F00080F1F00080F1F00080F1F000878
:1000B000C7260008372700080F1F00080F1F000879
:1000C0000F1F00080F1F00080F1F00080F1F000858
:1000D0000F1F0008812B0008332C0008F32C0008A8
:1000E0000F1F00080F1F00080F1F00080F1F000838
:1000F0000F1F00080F1F00080F1F00080F1F000828
:100100000F1F00080F1F00080F1F00080F1F000817
:100110000F1F00080F1F00080F1F00080F1F000807
:100120000F1F00080F1F00080F1F00080F1F0008F7
:1001300000F002F800F053F80AA090E8000C8244A6
:100140008344AAF10107DA4501D100F048F8AFF283
:10015000090EBAE80F0013F0010F18BFFB1A43F0A5
:1001600001031847F898000018990000103A24BFBE
:1001700078C878C1FAD8520724BF30C830C144BF0C
:1001800004680C607047000000230024002500264E
:10019000103A28BF78C1FBD8520728BF30C148BFEA
:1001A0000B607047662909F04781642904F0748662
:1001B000732905F09683002070471FB505F088FE6F
:1001C00004000020002107F07BFF401C606000203D
:1001D000002107F05FFFE0601FBD10B510BD06F005
:1001E0003DF91146FFF7E9FF04F0D2FB06F08EFB64
:1001F00003B4FFF7F2FF03BC06F0E6FB7047FEE72F
:10020000FEE7FEE7FEE77047704770470CB5002138
:100210004B4801910091026842F4803202604FF431
:10022000A063026802F400320092019A521C01920B
:10023000009A12B9019A9A42F3D10268920333D517
:10024000012100913F490A6842F010020A600A68E1
:1002500022F003020A600A6842F002020A60416862
:10026000416041684160416841F48061416041689A
:1002700021F47C114160416841F4E811416001685A
:1002800041F08071016001688901FCD5416821F06D
:1002900003014160416841F0020141604168C1F3DE
:1002A00081010229FAD10CBD00910CBD244810B582
:1002B000016841F0010101604168234A1140416039
:1002C0000168224A11400160016821F48021016027
:1002D000416821F4FE0141604FF41F018160FFF786
:1002E00095FF1B494FF00060086010BD144910B520
:1002F0004868184A10F00C03174803D0042B01D0AB
:10030000082B0AD002604968134AC1F30311121D79
:10031000515C0268CA40026010BD4A684B6802F432
:1003200070124FF0020413F4803F04EB924202D0AB
:100330004B689B0301D5094B00E0064B5A43E1E7AC
:1003400000100240002002400000FFF8FFFFF6FE10
:1003500008ED00E000127A000000002000093D00D6
:10036000914910B5884206D10121042000F04BFAD2
:10037000002104203BE08D49884206D1012108205C
:1003800000F041FA0021082031E08949884206D175
:100390000121102000F037FA0021102027E08549C4
:1003A000884206D10121202000F02DFA00212020D2
:1003B0001DE08149884206D10121402000F023FA46
:1003C0000021402013E07D49884206D10121802090
:1003D00000F019FA0021802009E0794988420AD109
:1003E00084150121204600F00EFA00212046BDE8C8
:1003F000104000F008BA10BD10B50121084600F009
:1004000002FA0021BDE81040012000F0FCB9F0B56F
:10041000CA78002502F00F03D20601D58A7813436B
:100420000A784FF00F0E12F0FF0F4FF001021DD0AF
:10043000D0F800400F8802FA05F63740B74211D1D4
:100440004FEA850C0EFA0CF724EA070703FA0CF4BE
:100450003C43CF78282F02D0482F02D002E04661DB
:1004600000E006616D1C082DE4D304600C88FF2CAD
:100470001ED944685FF0000606F1080702FA07F586
:100480000F882F40AF420FD14FEA860C0EFA0CF7BF
:10049000BC4303FA0CF73C43CF78282F00D14561C9
:1004A000CF78482F00D10561761C082EE4D3446034
:1004B000F0BD4FF6FF710180022181700421C170EF
:1004C00070470246002092680A4200D0012070471F
:1004D000806880B2704702460020D2680A4200D08D
:1004E00001207047C06880B2704701617047416168
:1004F00070470AB10161704741617047C160704740
:1005000041F48032826181618261816980697047D2
:100510002C4B10B51A684FF68074224042EA001046
:100520000843186010BD2849C8617047F0B5254CD4
:10053000002801DAE36900E06368420D120185B228
:10054000C0F301579540C0F30346032F05D0C20204
:100550000AD50322B240934307E023F07062636838
:1005600023F07063636002E0AB4343F0706201B15B
:100570002A43002801DAE261F0BD6260F0BD10B5E7
:100580008A0721F003040F49130F21440F228C68BE
:100590009A4094438C608A68984002438A6010BDF8
:1005A0000949C1F8DC00704700080140000C014017
:1005B000001001400014014000180140001C0140DF
:1005C000002001400000014000002042A4480168D2
:1005D00041F0010101604168A24A11404160016897
:1005E000A14A11400160016821F480210160416845
:1005F00021F4FE0141604FF41F018160704798496A
:100600000A6822F480320A600A6822F480220A60B2
:10061000B0F5803F07D0B0F5802F03D1086840F4D3
:10062000A02008607047086840F48030F9E702466F
:10063000002053098A49012B0AD0022B0AD0496AAB
:1006400002F01F02012393400B4200D001207047AB
:100650000968F5E7096AF3E718B500204FF4A064CC
:1006600000903120FFF7E3FF0099491C0091A1425F
:1006700001D00028F5D03120FFF7D9FF002800D0A5
:10068000012018BD76490A6822F0F80242EAC0004B
:1006900008607047754908607047714A536808439D
:1006A00023F47C1318435060704770490866704704
:1006B0006B4A516821F0030101435160704768485B
:1006C000406800F00C007047654A516821F0F00165
:1006D000014351607047624A516821F4E06101436F
:1006E000516070475E494A6822F4605242EAC00095
:1006F000486070475A4A0029517A01D0014300E00E
:100700008143517270475949C1F8D8007047544A23
:10071000516821F440410143516070475049002223
:1007200081F8202081F82020012802D0042802D15D
:10073000052081F8200070474D49086070474849FE
:100740000A6A02430A62704749494439086070479F
:1007500030B543494A6812F00C03464A03D0042BD3
:1007600001D0082B21D002604A680F23424C03EAD3
:100770001212A35C0268DA4042604B68072505EA62
:100780001323E35C22FA03F383604B6805EAD32367
:10079000E35CDA40C2604968032303EA9131231F16
:1007A000595CB2FBF1F1016130BD4A684B6802F45B
:1007B00070124FF0020413F4803F04EB924202D017
:1007C0004B689B0301D52D4B00E02A4B5A43CAE7E7
:1007D000234A0029516901D0014300E0814351615E
:1007E00070471F4A0029916901D0014300E081430D
:1007F000916170471A4A0029D16901D0014300E094
:100800008143D1617047164A0029D16801D0014364
:1008100000E08143D1607047114A0029116901D07D
:10082000014300E08143116170471149403908607C
:1008300070470E49C86470470949C8717047084835
:10084000416A41F0807141627047054A01460020CB
:1008500092680A4200D001207047014988727047AF
:10086000001002400000FFF8FFFFF6FE00004242C9
:100870008004424200127A001800002000093D0066
:100880002849084328490860704770B50F23C47889
:1008900001780122F4B1244C2468457804F4E06422
:1008A000C4F5E064240AC4F10406E3408478B5404A
:1008B0001C402C4301F1E021230181F80034007831
:1008C00000F01F018A404009800000F1E020C0F8DC
:1008D000002170BD01F01F0082404809800000F136
:1008E000E020C0F8802170BD104A114001430E483D
:1008F000001F016070470C4A121D0029116801D0C9
:10090000014300E08143116070474FF0E02104286B
:10091000086903D020F004000861704740F004002B
:10092000FAE700000000FA050CED00E080FFFF1F71
:10093000C44910B588420AD101218C032046FFF733
:1009400062FF2046BDE810400021FFF75CBFBE49B2
:10095000884202D101214C0410E0BC49884202D1F6
:1009600001218C040AE0BA49884202D10121CC0459
:1009700004E0B84988420AD101210C052046FFF75E
:100980004BFF2046BDE810400021FFF745BF10BDDA
:1009900030B50446008A85B00D464CF6FF7108401C
:1009A000E98801432182A1894EF6F3100140A8880D
:1009B0002A8910436A890A431043A081A08A4FF60E
:1009C000FF410840A9890143A1826846FFF7C0FEA4
:1009D0009C48844201D1039800E00298A18909044F
:1009E00000EBC00101EB0010296801D5490000E0CF
:1009F0008900B0FBF1F06422B0FBF2F109010B09B0
:100A00006FF018056B4300EB8300A3891D044FF0C2
:100A1000320306D503EBC000B0FBF2F000F0070094
:100A200005E003EB0010B0FBF2F000F00F0008430C
:100A3000208105B030BD4FF4165101600021818046
:100A4000C18001810C2242818181704710B5038AE7
:100A50004FF2FF0213400A884C8822438C88C988D1
:100A60000C4322431A43028210BD002101804180C1
:100A70008180C18070470029818902D041F40051F2
:100A800001E021F400518181704710B5C1F3421398
:100A900001F01F040121A140012B07D0022B07D038
:100AA0001430002A026805D00A4304E00C30F8E74D
:100AB0001030F6E78A43026010BD002A828A01D016
:100AC0000A4300E08A4382827047028A22F00F02C2
:100AD0000282028A0A4302827047828922F40062FB
:100AE000828182890A43828170470029818902D0EC
:100AF00041F0020101E021F0020181817047028A88
:100B000022F020020282028A0A43028270470029F0
:100B1000018A02D041F4804101E021F48041018248
:100B20007047C1F30801818070478088C0F30800D6
:100B30007047818941F0010181817047028BD2B2F7
:100B40000283028B42EA012101837047028B02F487
:100B50007F420283028B0A43028370470029818A05
:100B600002D041F0200101E021F020018182704794
:100B70000029818A02D041F0100101E021F010012A
:100B8000818270470029818A02D041F0080101E08A
:100B900021F00801818270470029818902D041F447
:100BA000004101E0C1F30E01818170470029818A73
:100BB00002D041F4006101E021F4006181827047BC
:100BC000828A22F004028282828A0A4382827047E9
:100BD0000029818A02D041F0020101E021F00201E6
:100BE000818270470246002012880A4200D001200C
:100BF0007047C9430180704730B501F01F020124DE
:100C00000025C1F3421304FA02F2012B0FD0022B8C
:100C10000FD0838A4FEA11210088134204FA01F4AD
:100C200000EA040001D000B10125284630BD8389C7
:100C3000F0E7038AEEE70A0A01219140C9430180E7
:100C40007047000000380140004400400048004068
:100C5000004C004000500040F94910B5884202D1D4
:100C60000121C41486E0B0F1804F09D0F5498842D3
:100C70000DD101210220FFF7CFFD0021022064E009
:100C800001210846FFF7C8FD002101205DE0EE4983
:100C9000884206D101210420FFF7BEFD0021042077
:100CA00053E0EA49884206D101210820FFF7B4FD4C
:100CB0000021082049E0E649884206D101211020A0
:100CC000FFF7AAFD002110203FE0E249884206D14B
:100CD00001212020FFF7A0FD0021202035E0DE4982
:100CE000884202D10121441444E0DC49884202D107
:100CF0000121CC043EE0DA49884202D101210C05F1
:100D000038E0D849884202D101214C0532E0D64969
:100D1000884206D101214020FFF77EFD00214020BE
:100D200013E0D249884206D101218020FFF774FDEB
:100D30000021802009E0CE4988420AD18415012192
:100D40002046FFF769FD00212046BDE81040FFF76F
:100D500063BDC849884202D101210C040AE0C6499A
:100D6000884202D101214C0404E0C44988420AD1DE
:100D700001218C042046FFF746FD2046BDE81040C7
:100D80000021FFF740BD10BD30B50288AC4BB24C1E
:100D900098420DD0A0420BD0B0F1804F08D0A94DA1
:100DA000A84205D0A84DA84202D0A84DA84203D120
:100DB00022F070054A882A43A54DA84206D0A54DC9
:100DC000A84203D022F44075CA882A4302808A8848
:100DD00082850A88028598420AD0A04208D0A54A96
:100DE000904205D0A44A904202D0A44A904201D138
:100DF000097A01860121818230BD30B5028C22F052
:100E000001020284028C8388048B22F0020224F007
:100E100073050C882C430D8915434A882A43884D55
:100E2000A8420BD08C4DA84208D0924DA84205D0C4
:100E3000914DA84202D0914DA8420DD122F0080553
:100E40004A8923F440732A4322F004058A882A43FE
:100E50008D891D43CB892B4383800483C988818678
:100E6000028430BD70B5028C22F010020284028C24
:100E70008488038B0D8823F4E6464FF6FF7303EA5C
:100E8000052535430E8922F0200203EA0616164393
:100E90004A8803EA02123243694EB04202D06E4ED3
:100EA000B04215D122F080064A8924F4406403EA56
:100EB0000212324322F040068A8803EA02123243C9
:100EC0008E8903EA86062643CC8903EA84043443E8
:100ED00084800583C9880187028470BD70B5028C47
:100EE00022F480720284028C8488838B0D8823F024
:100EF00073031D4322F400730E894FF6FF7202EA5A
:100F000006261E434B8802EA032333434C4EB0426D
:100F100002D0514EB04215D123F400664B8924F41F
:100F2000405402EA0323334323F480668B8802EAA9
:100F3000032333438E8902EA06162643CC8902EA4C
:100F40000414344384808583C9888187038470BDF9
:100F500070B5028C22F480520284048C8288838BC8
:100F60000D8823F4E6464FF6FF7303EA0525354363
:100F700024F400560C8903EA043434434E8803EA0F
:100F8000063626432E4CA04202D0334CA04205D157
:100F900022F480448A8903EA821222438280858374
:100FA000C988A0F84010068470BD828B22F440628C
:100FB0008283828B4FF6FF7303EA01210A43828307
:100FC0007047828B22F00C028283828B0A438283D9
:100FD0007047028B22F440620283028B4FF6FF734C
:100FE00003EA01210A4302837047F0B5048C24F020
:100FF00010040484078B048C4FF6FF7527F47347A5
:1010000005EA03333B4305EA02221A430C4B05EA87
:10101000011698420ED0104B98420BD0B0F1804F81
:1010200008D0084B984205D0074B984202D0074B96
:10103000984225D124F02001314341F0100124E0F1
:10104000002C01400004004000080040000C00405B
:10105000001000400014004000340140004C0140EA
:10106000005001400054014000180040001C0040A6
:101070000020004000400140004401400048014081
:1010800024F0A0030B4343F0100102830184F0BD60
:10109000028B22F00C020283028B0A430283704708
:1010A00070B5048C24F001040484058B048C4FF685
:1010B000FF7606EA0313134325F0F305F94A2B43A1
:1010C00090420ED0F84A90420BD0B0F1804F08D039
:1010D000F64A904205D0F64A904202D0F54A904234
:1010E00002D124F0020201E024F00A020A4342F095
:1010F00001010383018470BD2DE9F05F0D460446B4
:101100000888E84FDFF8A0C3DFF8A0834988AA88E1
:101110002B894FF0804960B3042832D04FF6FF7E10
:10112000082836D0208C9B4620F480502084A38B46
:10113000268C704600EA022223F473431A4300EA25
:101140000B3010430EEA013EBC420BD0644509D07F
:101150004C4507D0444505D0D54A944202D0D54BE2
:101160009C4245D126F4005141EA0E0141F48051E0
:1011700043E02046FFF794FFE9882046BDE8F05F92
:1011800086E72046FFF731FFE9882046BDE8F05F9B
:101190001FE7208C20F480702084B4F81CA0208CE1
:1011A0000EEA031313432AF0F30A0EEA012B43EA73
:1011B0000A03BC420BD0644509D04C4507D04445D6
:1011C00005D0BB4A944202D0BA4A944204D120F4DA
:1011D000007040EA0B0002E020F42060084340F475
:1011E0008070A3832084E9882046BDE8F05FE8E6AC
:1011F00026F402420A4342F48051A083204621840F
:10120000E988BDE8F05FD0E62DE9F0410C46002604
:1012100049880746012501B90226A288012A00D182
:101220000225208823890028384610D0FFF7DDFEEC
:10123000E1883846FFF7CDFE23892A4631463846F5
:10124000FFF72EFFE1883846BDE8F04120E7FFF7C1
:1012500027FFE1883846FFF71BFF23892A463146DE
:101260003846FFF7C2FEE1883846BDE8F041B0E6F7
:1012700010B50A884B88CC881A438B8823431A43BD
:101280000B891A434B8989891A430A43A0F84420E1
:1012900010BD4FF6FF71818000210180C180418027
:1012A000017270470021018041808180C1800181ED
:1012B00041818181C18170470021018041800122EB
:1012C0008280C1800181704700210180418081803E
:1012D000C18001814181818170470029018802D04C
:1012E00041F0010101E021F0010101807047002976
:1012F00030F8441F02D041F4004101E0C1F30E0177
:1013000001807047002A828901D00A4300E08A43A5
:1013100082817047818270471143A0F8481070475E
:10132000002A828901D00A4300E08A438281704703
:10133000018921F0070101817047028922F07002C2
:101340000A430281704700B50346FFF7F6FF18898C
:1013500040F00700188100BD70B516460D466029A3
:1013600004464FF0010231460AD0FFF799FE2946A4
:101370002046FFF7E2FF208940F00700208170BD82
:10138000FFF733FEF3E730B504894FF6FF7505EA42
:1013900003231343E4B20B432343038130BD10B551
:1013A0000446FFF7F0FF208940F07700208110BD50
:1013B00010B50446FFF7E7FF208940F48040208104
:1013C00010BD018582827047028822F070020A43B4
:1013D0000280704770B50589048B068C25F00705DF
:1013E0000D434FF6FC410C4040F201110C434FF607
:1013F000FF7101EA031126F02206114331430581F2
:101400000483018470BD028B22F070020A430283C0
:101410007047028B4FF6FF7322F4E04203EA01218A
:10142000114301837047828B22F070020A4382834A
:101430007047828B4FF6FF7322F4E04203EA0121EA
:101440001143818370470029018802D041F0800157
:1014500001E021F08001018070470029818802D0DD
:1014600041F0040101E021F004018180704700296E
:10147000818802D041F0080101E021F0080181805B
:1014800070470029818802D041F0010101E021F07C
:10149000010181807047028B22F008020A43028317
:1014A00070470000002C014000340140000400405F
:1014B00000080040000C0040028B4FF6FF7322F43E
:1014C000006203EA012111430183E9E7828B22F0E4
:1014D00008020A438283E3E7828B4FF6FF7322F40C
:1014E000006203EA012111438183D9E7028B22F0D4
:1014F00004020A430283D3E7028B4FF6FF7322F400
:10150000806203EA012111430183C9E7828B22F043
:1015100004020A438283C3E7828B4FF6FF7322F4EF
:10152000806203EA012111438183B9E7028B22F033
:1015300080020A430283B3E7028B4FF6FF73C2F3C4
:101540000E0203EA012111430183A9E7828B22F0F5
:1015500080020A438283A3E7828B4FF6FF73C2F3B4
:101560000E0203EA01211143818399E7028C22F0E4
:1015700002020A43028493E7028C22F008020A4323
:1015800002848DE7028C4FF6FF7322F0200203EAFB
:1015900001111143018483E7028C4FF6FF7322F09F
:1015A000800203EA01111143018479E7028C4FF6AE
:1015B000FF7322F4007203EA0121114301846FE7F3
:1015C000028C4FF6FF7322F4006203EA01211143FB
:1015D000018465E7028C4FF6FF7322F4005203EAA0
:1015E0000131114301845BE710B50123048C8B406A
:1015F0009C430484038C8A401343038410BD10B5BC
:101600000423048C8B409C430484038C8A40134342
:10161000038410BD30B50124058C00F118038C4003
:10162000A543058489B108290FD0091FC1F34E00D5
:101630001844016821F4E041016001684FF6FF732E
:1016400003EA02221143016030BD03EB510001683F
:1016500021F0700101600168F4E70029018802D0DF
:1016600041F0020101E021F00201018018E70029A8
:10167000018802D041F0040101E021F00401018061
:101680000EE70029818802D041F0800101E021F0BD
:101690008001818004E7028822F00802028002882B
:1016A0000A430280FCE6828822F0700282808288EF
:1016B0000A438280F4E6028922F00702028102894D
:1016C0000A430281ECE6028922F08002028102894B
:1016D0000A430281E4E68184E2E68185E0E68186D0
:1016E000DEE60187DCE68187DAE6A0F84010D7E67F
:1016F000028822F44072028002880A430280CFE608
:10170000808ECDE6008FCBE6808FC9E6B0F8400032
:10171000C6E6808CC4E6008DC2E602460020128A2E
:101720000A4200D00120BBE6C9430182B8E6024666
:101730000020138A92890B4202EA010202D0002A99
:1017400000D00120ACE6C9430182A9E6994910B551
:1017500088420AD1841401212046FFF754F820461C
:10176000BDE810400021FFF74EB89349884202D1EE
:101770000121041404E0914988420AD10121C413D3
:101780002046FFF749F82046BDE810400021FFF74A
:1017900043B810BD30B502884C8802F441530A8822
:1017A000CD8822438C882C4322430C8922434C89C8
:1017B00022438C892243CC8922431A430280828BA4
:1017C00022F400628283098A018230BDF0B50546A9
:1017D0000C4602200021AA8B85B001264FF240035F
:1017E0001A40AA832884AF8BA268022A27D0A08837
:1017F00000B102266846FEF7ABFFE1880098B1F51C
:10180000007F2DD07101B0FBF1F000BF00EB800034
:10181000A1684000B0FBF1F0401D80B20A21B0FB8E
:10182000F1F000F00101401A4FF6FF72C0F34F00D3
:1018300002EA0121821EFE2A01D302200021E28851
:10184000084302432A8420886188A2890843A1882A
:1018500011430843384340F40060A88305B0F0BD4D
:10186000000AD3E70021018041808180C18001818D
:1018700041818181C181072101827047002101805E
:1018800041808180C180022282608181704700296D
:10189000018802D041F0400101E021F040010180C7
:1018A00070470029818B02D041F4806101E021F46E
:1018B000806181837047090901238B40002A828857
:1018C00099B201D00A4300E08A4382807047002A1F
:1018D000828801D00A4300E08A4382807047818178
:1018E000704780897047A1F57E420188FF3A02D097
:1018F00041F4807101E021F480710180704700297A
:10190000818802D041F0040101E021F004018180CE
:101910007047028822F40062028002880A43028033
:101920007047018841F48051018070470029018887
:1019300002D041F4005101E021F4005101807047D0
:10194000012901D0008B7047808A7047008A704758
:10195000B1F5804F018803D021F4804101807047A8
:1019600041F48041FAE70246002012890A4200D081
:1019700001207047C9430181704710B501F00F0481
:101980000122034602FA04F4002009098A4091B2B8
:101990009A88A4B20A401989214202D0002A00D0B4
:1019A000012010BD01F00F0201219140C9430181C6
:1019B000704700000030014000380040003C00400B
:1019C000C54910B5884202D1012144150AE0C34936
:1019D000884202D10121041504E0C14988420AD19C
:1019E0000121CC032046FEF70EFF2046BDE8104043
:1019F0000021FEF708BF10BD10B54268B94B0C7945
:101A00001A400B6842EA0422134343608368B64AD3
:101A10001340D1E9024222434C7943EA44031A437A
:101A20008260C26A097C22F47002491EC9B242EA8D
:101A30000151C16210BD00210160017141718160DD
:101A4000C1600121017470470029816802D041F012
:101A5000010101E021F001018160704700298168E6
:101A600002D041F4807101E021F4807181607047FF
:101A7000002A4268C9B201D00A4300E08A434260AA
:101A80007047816841F0080181607047014600207D
:101A90008968090700D501207047816841F0040179
:101AA00081607047014600208968490700D5012000
:101AB00070470029816802D041F4A00101E021F4BF
:101AC000A00181607047014600208968490200D565
:101AD000012070474268491E22F4604242EA4131C7
:101AE000416070470029416802D041F4006101E083
:101AF00021F400614160704770B5072409290AD9B3
:101B0000C568A1F10A0606EB4606B440A543B340FA
:101B10001D43C56007E0056901EB4106B440A543DC
:101B2000B3401D4305611F23072A09D2446B521E8F
:101B300002EB820293409C4391400C43446370BD8E
:101B40000D2A09D2046BD21F02EB820293409C4300
:101B500091400C43046370BDC46A0D3A02EB8202EB
:101B600093409C4391400C43C46270BD002981683E
:101B700002D041F4801101E021F4801181607047AE
:101B8000C06C80B2704754484C30006870470029E0
:101B9000416802D041F4806101E021F4806141603C
:101BA00070470029416802D041F4805101E021F4DE
:101BB000805141607047826822F4E0420A438260AB
:101BC00070470029816802D041F4004101E021F40E
:101BD0000041816070470029816802D041F4021100
:101BE00001E021F4021181607047014600208968FC
:101BF000890200D50120704770B5072409290AD948
:101C0000C568A1F10A0606EB4606B440A543B340F9
:101C10001D43C56007E0056901EB4106B440A543DB
:101C2000B3401D430561836BC3F30154121B921C27
:101C300002EB82041F22A2409343A1400B43836323
:101C400070BD826B491E22F4401242EA0151816349
:101C5000704708B508440090026008BD08B5084404
:101C600028300090006880B208BD42681F4B1A40BF
:101C70000A4342607047416282627047426822F0C4
:101C80001F020A4342607047134908310028086860
:101C900002D040F4000001E020F40000086070472A
:101CA0000246002012680A4200D001207047C94352
:101CB0000160704710B50246002054680B0AC9B293
:101CC0000C401168194202D0002C00D0012010BD38
:101CD0006FEA112101607047002401400028014093
:101CE000003C0140FFFEF0FFFDF7F1FFFFFD3FFF6D
:101CF00001684FF6FE7211400160002101604160F1
:101D00008160C1606A496A4A0839904203D14868D3
:101D100040F00F0006E0664A1432904204D1486851
:101D200040F0F00048607047614A2832904203D189
:101D3000486840F47060F5E75D4A3C32904203D158
:101D4000486840F47040EDE7594A5032904203D160
:101D5000486840F47020E5E7554A6432904203D168
:101D6000486840F47000DDE7514A7832904203D170
:101D7000486840F07060D5E74E4A111F904203D189
:101D8000086840F00F0006E04A4A1432904204D13D
:101D9000086840F0F00008607047464A28329042D8
:101DA00003D1086840F47060F5E7424A3C32904243
:101DB00003D1086840F47040EDE73E4A503290424B
:101DC000EAD1086840F47020E5E730B5036847F6CB
:101DD000F07293430C6A8A682243D1E904452C438C
:101DE00022438C692243CC6922434C6A22438C6A89
:101DF00022431A430260CA6842600A6882604968E6
:101E0000C16030BD0021016041608160C16001613D
:101E100041618161C1610162416281627047002953
:101E2000016802D041F0010102E04FF6FE7211405C
:101E300001607047002A026801D00A4300E08A432B
:101E40000260704741607047406880B27047014649
:101E50000020CA0002D5174A083A01E0144A083A9D
:101E600012680A4200D001207047C10003D5114911
:101E7000091F086070470E490839486070470146DD
:101E80000020CA0002D50B4A083A01E0084A083A85
:101E900012680A4200D001207047C10003D50549ED
:101EA000091F086070470249083948607047000000
:101EB00008000240080402400D49086070470C49C0
:101EC000486070470A498860704709494AF6AA2065
:101ED0000860704706494CF6CC4008607047044AD9
:101EE00001460020D2680A4200D00120704700005D
:101EF000003000400948804709480047FEE7FEE7F8
:101F0000FEE7FEE7FEE7FEE7FEE7FEE7FEE7FEE7A9
:101F100004480549054A064B70470000AD02000819
:101F200031010008E81A0020E8200020E81C002009
:101F3000E81C00207047401E80B2FCD27047401E53
:101F400080B2FCD2704703E00521491E89B2FCD261
:101F5000401E80B2F8D2704710B503464FF47A7431
:101F600002E02046FFF7EFFF5B1E9BB2F9D210BDE7
:101F700030B50020294A2A4D034640F2DC5400BF08
:101F800002EB0011401C4C80C1E90253C0B208288A
:101F9000F6D330BD30B502460B4616E01D78AC4294
:101FA0000CD011E012F8015B5B1CA54206D05B1A55
:101FB000D21A0C780B46521C3CB902E01C78002C5B
:101FC000F0D1101A80B230BD521C1478002CE5D12B
:101FD000002030BDF0B500224D1E18E01446531C01
:101FE00008E000BF50F8246050F82370BE4200DDC6
:101FF0001C465B1C8B42F5DB944207D050F8243022
:1020000050F8226040F8246040F82230521CAA4266
:10201000E4DBF0BD002800DC40427047D000002027
:102020000080BB4410B501210D20FEF7DAFBBDE8AE
:10203000104001216C48FEF779BA08B5012108204B
:10204000FEF7CFFB4FF40050ADF8000010208DF8E4
:10205000030003208DF8020069466448FEF7D7F9B3
:1020600008BD012282406148002991B201D0FEF7EB
:102070003CBAFEF73CBA10B55D4C207808B100219F
:1020800000E001210D20FFF7ECFF2078C043207015
:1020900010BD08B501210820FEF7A3FB2020ADF8F4
:1020A000000010208DF8030003208DF8020069461F
:1020B0004E48FEF7ACF908BD70B50E460546002443
:1020C00016E001210520FFF7CCFF00210D20FFF7CE
:1020D000C8FFA8B2FFF740FF00210520FFF7C1FFAE
:1020E00001210D20FFF7BDFFA8B2FFF735FF641CEB
:1020F000B442E6D370BD012282403E48002991B22D
:1021000001D0FEF7F2B9FEF7F2B9012282403A4857
:10211000002991B201D0FEF7E8B9FEF7E8B938B569
:1021200001210C20FEF75DFB4FF40140ADF80000EB
:1021300003248DF8024010258DF8035069462D4880
:10214000FEF765F94FF47670ADF800008DF80240A7
:102150008DF8035069462548FEF759F938BD062821
:1021600010D2DFE800F0030507090B0D032008E09B
:10217000082006E0092004E0062002E0072000E035
:1021800004206EE7704738B501210C20FEF729FBCB
:102190004FF40060ADF8000048248DF80340694614
:1021A0001248FEF734F90220ADF800008DF8034024
:1021B00069461048FEF72BF938BD70B50D46064646
:1021C00000240EE001210520FFF74BFFA8B2FFF726
:1021D000C3FE00210520FFF744FFA8B2FFF7BCFEB5
:1021E000641CB442EEDB70BD00023000000C014004
:1021F0002B00002000080140001001401CB5012107
:102200000520FEF7EEFA01215048FEF78FF94FF452
:10221000E040ADF8000010208DF8030003204C4C86
:102220008DF8020069462046FEF7F1F84FF40040B1
:10223000ADF8040028208DF8070001A92046FEF71C
:10224000E6F81CBD10B5FFF7D9FF414C4FF4005123
:102250002046FEF74AF94FF480412046FEF745F943
:10226000A1142046BDE81040FEF73FB92DE9F05F0C
:102270000026DFF8DC90074635464FF4804B4FF4DC
:1022800080584FF0010A00BF0AFA05F43C42594653
:10229000484602D0FEF729F901E0FEF728F90120AF
:1022A000FFF751FE41464846FEF71FF90A20FFF7A7
:1022B0004AFE41464846FEF71AF90A20FFF743FE58
:1022C00041464846FEF711F94FF400414846FEF7F3
:1022D000F8F808B13443E6B26D1CEDB2082DD3D343
:1022E0003046BDE8F09F70B5194E04464FF40055D6
:1022F00029463046FEF7FBF80120FFF7B7FF2070B4
:102300004220FFF7B3FF60702078FFF7AFFFA070A7
:102310002078FFF7ABFFE0702078FFF7A7FF207170
:102320002078FFF7A3FF60712078FFF79FFFA0716F
:102330002078FFF79BFFE0712078FFF797FF20726E
:1023400029463046BDE87040FEF7CFB800043000A3
:102350000008014010B5FEF739F94FF480342046EB
:10236000FEF74DF9FEF778F90028FDD00020FEF7C2
:10237000ABF94FF48060FEF7AEF90020FEF7B2F93A
:102380004FF4E0112046FEF788F90120FEF78DF9A1
:102390003920FEF74CF90028FAD00220FEF788F920
:1023A000FEF78DF90828FBD110BD000010B545F2ED
:1023B0005550FFF781FD0620FFF781FD4FF4EA70CD
:1023C000FFF780FDFFF781FDBDE81040FFF782BDFC
:1023D000B0F5000F01DA80F0004070474FF0E020C8
:1023E00000218161FE494161016941F007010161FC
:1023F00070474FF0E02100208861FA484168491C8D
:102400004160FFF762BDF748406870477FB50C46F2
:1024100005460121C802FEF7E4F9641EADF800404C
:10242000ADF804500024F04DADF80640ADF8024080
:102430008DF8084069462846FEF7A6FC012128468B
:10244000FFF772F9012241212846FEF75BFF1920B0
:102450008DF80C008DF80D408DF80E4001208DF8A0
:102460000F0003A8FEF711FA01212846FEF735FFF9
:102470007FBD7FB50C46054601210846FEF7BAF937
:10248000ADF800400020ADF80450ADF80600ADF8FE
:1024900002004FF0804469462046FEF775FC00219B
:1024A0002046FEF7D0FF012211462046FEF72AFF04
:1024B0001C208DF80C0001218DF80D1002208DF8E4
:1024C0000E008DF80F1003A8FEF7DFF9012120465A
:1024D000FEF703FF7FBD7FB50C46054601210220B4
:1024E000FEF788F9ADF800400020ADF80450BF4C6D
:1024F000ADF80600ADF8020069462046FEF744FC40
:1025000000212046FEF79FFF012211462046FEF7DC
:10251000F9FE1D208DF80C0003208DF80D0001211F
:102520008DF80E108DF80F1003A8FEF7AEF90121FB
:102530002046FEF7D2FE7FBD30B50C46054689B079
:1025400001210220FEF756F901210820FEF749F982
:102550000320ADF81C0018218DF81F108DF81E0007
:1025600007A9A348FDF753FFADF81450ADF810408C
:1025700000249E4DADF81640ADF8124004A928463F
:10258000FEF702FC6020ADF800000120ADF802006B
:102590004FF4FA70ADF80600ADF8084069462846D9
:1025A000FEF79CFC08212846FEF790FF6946284666
:1025B000FEF7CEFC08212846FEF78EFF01212846B3
:1025C000FEF78BFE09B030BD30B50C46054689B02C
:1025D00001210420FEF70EF901210820FEF701F980
:1025E0004FF44070ADF81C0018208DF81F00032038
:1025F0008DF81E0007A97E48FDF709FFADF81450BD
:10260000ADF8104000247B4DADF81640ADF81240F7
:1026100004A92846FEF7B8FB6020ADF800000120B1
:10262000ADF802004FF4FA70ADF80600ADF80840BE
:1026300069462846FEF752FC08212846FEF746FF69
:1026400069462846FEF784FC08212846FEF744FF29
:1026500001212846FEF741FEB4E7B0F5000F01DA8C
:1026600080F00040704770B5634901EB0015EA68DF
:1026700012F0FF4F20D06C8840F6BA10844203DC81
:102680004FF4FA70844200DA04460121104606F045
:1026900035FFFFF7E2FF0646204606F0EDFC044654
:1026A000A96806F051FEFFF7D8FF314606F010FD8D
:1026B00003D80020C5E9024070BDD5E9020106F04B
:1026C00069FBA86070BD70B501218D072846FFF732
:1026D0002EF8002821D001212846FFF734F8414C7C
:1026E0006078082801D1002060704348667821781E
:1026F00000EB0610806889B106F09EFCA0F6C410BD
:102700004042A88500213046FFF729FD6078401C33
:102710006070207868B10020207070BD06F08CFCDD
:10272000A88501213046FFF71AFD6078FFF79BFF6F
:10273000EFE70120F0E710B52C4C01212046FEF711
:10274000F6FF002805D02046BDE810400121FEF725
:10275000FABF10BD2DE9F0418846074688B0012137
:1027600040F60400FEF73DF84FF48070ADF81C0011
:1027700048208DF81F0003208DF81E0007A91F4870
:10278000FDF745FE1B208DF8000000248DF8014068
:1027900001258DF802508DF803506846FEF775F854
:1027A00019208DF800008DF8014002268DF8026096
:1027B0008DF803506846FEF768F8ADF814700A4FBC
:1027C000ADF81080ADF81640ADF8124004A93846B7
:1027D000FEF7DAFAADF80440ADF8066010E000004C
:1027E000401901002C000020002C01400004004092
:1027F000000C014000080040D0000020000801400B
:10280000ADF80A40ADF80850ADF80C4001A93846C3
:10281000FEF772FC01213846FEF786FF022138469A
:10282000FEF782FF012202213846FEF76BFD0121EF
:102830003846FEF752FD08B0BDE8F08170B5054698
:1028400086B001210820FDF7CCFF01218804FDF7A7
:10285000D1FF4FF48060ADF8100018208DF8130000
:1028600003248DF8124004A9FE4E3046FDF7CFFD3B
:10287000F014ADF8100004208DF8130004A93046C0
:10288000FDF7C5FD0020ADF804000095ADF8060089
:10289000ADF80800ADF80C000C20F34DADF80A00BF
:1028A00069462846FEF774F827208DF814000121A8
:1028B0008DF815108DF816408DF8171005A8FDF746
:1028C000E4FF012240F225512846FEF7DEF80121FF
:1028D0002846FEF7D0F806B070BDF0B5054687B0C3
:1028E00001210420FDF77DFF01214804FDF782FF4F
:1028F000DE4E3046FEF71CF80424ADF810400320ED
:102900008DF812001820DA4F8DF8130004A938460C
:10291000FDF77DFD0820ADF810008DF8134004A9E7
:102920003846FDF774FD0020ADF80400ADF8060050
:10293000ADF80800ADF80C000C20ADF80A000095C9
:1029400069463046FEF724F826208DF81400012051
:102950008DF8150002218DF816108DF8170005A8C6
:10296000FDF793FF012240F225513046FEF78DF826
:1029700001213046FEF77FF807B0F0BDF0B50646FE
:1029800089B0012144F20400FDF72BFFB94D284620
:10299000FDF7CEFF6C15ADF8104003208DF8120046
:1029A0001820B34F8DF8130004A93846FDF72FFD0A
:1029B0006000ADF8100004208DF8130004A938461B
:1029C000FDF725FD0021ADF804100096ADF80610C6
:1029D000ADF808100C20ADF81410ADF81840ADF8A3
:1029E0000C10ADF80A00ADF81610ADF81A1005A9D4
:1029F0002846FEF72BF869462846FDF7C9FF4FF435
:102A0000E060FDF73DFF25208DF81C0001218DF8C9
:102A10001D108DF81E108DF81F1007A8FDF735FF4B
:102A2000012240F225512846FEF72FF801212846C1
:102A3000FEF721F809B0F0BD70B54FF4E13420463F
:102A4000FFF79CFF40F22555012229468948FEF7F1
:102A50001CF82046FFF741FF012229468348FEF774
:102A600014F82046FFF7EAFE012229467E48FEF7C9
:102A70000CF862B670BD01467E48FEF752B82DE9EB
:102A8000F0410E46074600247A4D0BE0395D28469A
:102A9000FEF747F880212846FEF7A4F80028F9D071
:102AA000641CA4B2B442F1D3BDE8F08170B5044611
:102AB000704D09E02846641CFEF733F88021284653
:102AC000FEF790F80028F9D021780029F2D170BDE6
:102AD00001466648FEF725B82DE9F0410E46074647
:102AE0000024624D0BE0395D2846FEF71AF880217C
:102AF0002846FEF777F80028F9D0641CA4B2B44247
:102B0000F1D3D1E770B50446584D09E02846641C5E
:102B1000FEF707F880212846FEF764F80028F9D070
:102B200021780029F2D170BD01464F48FDF7F9BF69
:102B30002DE9F0410E46074600244B4D0BE0395D70
:102B40002846FDF7EEFF80212846FEF74BF80028C7
:102B5000F9D0641CA4B2B442F1D3A5E770B5044621
:102B6000414D09E02846641CFDF7DBFF8021284623
:102B7000FEF738F80028F9D021780029F2D170BD8D
:102B80002DE9F0413B4C40F2255529462046FEF701
:102B900029F801284BD129462046FEF74CF820465B
:102BA000FDF7C3FF344CC0B2217871BB0125334916
:102BB0000022334B3C2802D00E7816B113E00426D5
:102BC0000FE0242806D0232806D07B2806D025280D
:102BD00006D007E00D7005E0022602E0032600E0C3
:102BE00005260E701A80274E1F88F0557F1CBFB235
:102BF0001F800978042909D001290AD0022908D0A8
:102C0000032909D005290AD00DE010E03E2808D09C
:102C100009E0212805D006E07D2802D003E02A281B
:102C200001D1F2552570B7F5806F00D31A800020CE
:102C30003AE72DE9F0410D4C40F225552946204652
:102C4000FDF7D0FF012852D129462046FDF7F3FFBA
:102C50002046FDF76AFFC0B201220025074C084953
:102C60003C2811E0000C01400048004000440040B6
:102C70000008014000380140290000202A000020FF
:102C8000340000205005002002D0237813B10FE05B
:102C900004230BE0242804D0232804D07B2804D06C
:102CA00005E0227003E0022300E0032323704D803F
:102CB000434B4E88434F9855761CB6B24E802478CD
:102CC000042C06D0012C07D0022C05D0032C06D0F2
:102CD00009E03E2805D006E0212802D003E07D2847
:102CE00001D19D553A70B6F5806F00D34D8000201C
:102CF000DAE62DE9F041344C40F2255529462046CC
:102D0000FDF770FF012841D129462046FDF793FFCA
:102D10002046FDF70AFF2B4CC0B22178B1BB01253C
:102D20002A4900232A4A3C2802D00E7816B10FE027
:102D300004260BE0242804D0232804D07B2804D0C8
:102D400005E00D7003E0022600E003260E7093807C
:102D50001B4E9788F0557F1CBFB2978009780429D5
:102D600006D0012907D0022905D0032906D009E0A1
:102D70003E2805D006E0212802D003E07D2801D1BD
:102D8000F3552570B7F5806F00D3938000208BE654
:102D90008CE674E66FE6B5E69EE699E670B5094CFA
:102DA0000546012020702846FFF7D8FE2846FFF789
:102DB0007DFE0020207070BDD0E6B9E6B4E60000CC
:102DC0005005002029000020004800402A00002073
:102DD0003400002070B506460024F74D03E0641C63
:102DE000E4B2C82C0FD802212846FEF7BCFD00280B
:102DF000F5D031462846FEF772FD002405E0641C3C
:102E0000E4B2C82C01D9002070BD01212846FEF78C
:102E1000AAFD0028F3D02846FEF763FDC0B270BDBE
:102E20002DE9F041E54DE64EE34F4FF4005490B1EB
:102E30002C801820E87029463046FDF7E8FA214634
:102E40003046FDF752FB01213846FEF720FDBDE874
:102E5000F041FF20BEE700213846FEF718FD2C8028
:102E60001020E8700320A8703046BDE8F041D34937
:102E7000FDF7CDBA03E00921491E89B2FCD2401EFC
:102E800080B2F8D2704710B5CE490020CA4C888174
:102E90002046FEF77FFC2046BDE810400121FEF7EA
:102EA000F6BCF8B501210820FDF79BFC4FF48054D7
:102EB000ADF8004010208DF803000320C04E8DF8BF
:102EC000020069463046FDF7A2FA21463046FDF77A
:102ED0000CFB4FF42044ADF8004018208DF803009F
:102EE00069463046FDF793FA4FF48045ADF800503F
:102EF00048208DF8030069463046FDF788FA2146E0
:102F00003046FDF7F2FA01212846FDF773FCAD4883
:102F100000214FF482720180428081800222C280AF
:102F2000012202815202428138228281C18107211D
:102F30000182A14C01462046FEF72CFC01212046CF
:102F4000FEF7A5FCFF20FFF745FFFFF79CFFF8BD4C
:102F500010B59C493020984C88812046FEF71AFC19
:102F60002046BDE810400121FEF791BC70B5944E9B
:102F700000244FF48055224629463046FDF7B9FA21
:102F80009020FFF727FF0020FFF724FF0020FFF726
:102F900021FF0020FFF71EFFFF20FFF71BFF44EA81
:102FA0000024FF20FFF716FF044301222946304684
:102FB000FDF79FFA204670BD70B5814E4FF48055E5
:102FC000002229463046FDF794FA0520FFF702FF5C
:102FD000FF20FFF7FFFE0446012229463046FDF799
:102FE00088FA204670BD70B5754D06464FF4805482
:102FF000002221462846FDF77CFA0120FFF7EAFE71
:103000003046FFF7E7FE21462846BDE87040012222
:10301000FDF76FBA70B56A4D4FF480540022214617
:103020002846FDF766FA0620FFF7D4FE214628461B
:10303000BDE870400122FDF75CBA70B5604D4FF4F9
:103040008054002221462846FDF753FA0420FFF75A
:10305000C1FE21462846BDE870400122FDF749BA6D
:1030600070B5574E04464FF480550022294630462D
:10307000FDF73FFA0320FFF7ADFEC4F30740FFF76B
:10308000A9FEC4F30720FFF7A5FEE0B2FFF7A2FEFA
:10309000FF20FFF79FFE494C0122A41E2946207005
:1030A0003046FDF726FA207870BD2DE9F041DFF8B3
:1030B000108115460C4606464FF4805700223946CB
:1030C0004046FDF716FA0320FFF784FEC4F30740DD
:1030D000FFF780FEC4F30720FFF77CFEE0B2FFF7A6
:1030E00079FE002405E0FF20FFF774FE3055641CD4
:1030F000A4B2AC42F7D339464046BDE8F0410122C4
:10310000FDF7F7B92DE91040FFF756FFC007FBD1D7
:1031100010BD2DE9F0410646C8B2C0F580701446D6
:103120000D46824200D90446FFF774FFDFF8908015
:103130004FF48057002239464046FDF7DAF9022065
:10314000FFF748FEC5F30740FFF744FEC5F307202D
:10315000FFF740FEE8B2FFF73DFE002504E0705D9A
:10316000FFF738FE6D1CADB2A542F8D301223946F7
:103170004046FDF7BEF9BDE8F041C3E72DE9F04157
:103180000746C8B2C0F580740E461546A24200D864
:1031900014464FF48078224631463846FFF7B9FF8F
:1031A000A54211D0281B2744264485B24446A54297
:1031B000F1D82C46EFE70000003800403C0000202A
:1031C000000C0140100A0020BDE8F08170B5040336
:1031D000FFF720FFFFF796FF964E4FF48055002231
:1031E00029463046FDF785F92020FFF7F3FDC4F3AB
:1031F0000740FFF7EFFDC4F30720FFF7EBFDE0B258
:10320000FFF7E8FD012229463046FDF772F9BDE8D7
:10321000704077E72DE9F05FC1F30B060F0BC6F5A1
:103220008054884682461546A24200D81446DFF8EC
:10323000089239038B464FF480527F48FFF735FFE1
:10324000002006E0321819F80210FF2903D1401CB3
:1032500080B2A042F6D3A04222D23846FFF7B6FF92
:1032600000204A4606E000BF1AF800108319401CEF
:10327000D15480B2A042F7D359464FF480526E48E1
:10328000FFF77CFFA5420FD0281BA244A0440026D4
:1032900085B24FF480547F1CA542CAD82C46C8E79B
:1032A000224641465046EBE7BDE8F09FC1F30B03D1
:1032B000C3F580539A4200D91A465FE72DE9F04FD3
:1032C0008246C1F30B0081B0C0F58054ADF5805D3E
:1032D0000E461546A24200D81446E9464FEA163873
:1032E0004FEA08318B464FF480524846FFF7DDFE27
:1032F0000020C6F30B0706E03A1819F80210FF2960
:1033000003D1401C80B2A042F6D3A04220D2404656
:10331000FFF75CFF0021484606E000BF1AF80120D5
:103320007B18491CC25489B2A142F7D359464FF4C5
:10333000805200BFFFF7BAFFA5420DD0281BA24460
:10334000264485B24FF48054A542C7D82C46C5E721
:10335000224631465046EDE701B00DF5805DBDE8EF
:10336000F08F2DE9F0410C460746FFF753FE314E32
:103370004FF48055002229463046FDF7BAF8022066
:10338000FFF728FDC4F30740FFF724FDC4F307202F
:10339000FFF720FDE0B2FFF71DFD3846FFF71AFDED
:1033A000012229463046FDF7A4F8BDE8F041A9E620
:1033B00070B5FFF72FFEFFF7A5FE1E4D4FF48054AA
:1033C000002221462846FDF794F8C720FFF702FDAA
:1033D000012221462846FDF78CF8BDE8704091E6B1
:1033E00070B5144D4FF48054002221462846FDF755
:1033F00080F8B920FFF7EEFC012221462846FDF7B0
:1034000078F8BDE87040032034E570B5094D4FF4FD
:103410008054002221462846FDF76BF8AB20FFF7C9
:10342000D9FC012221462846FDF763F8BDE870402B
:1034300003201FE5000C0140220A002010B5404C7B
:1034400086B02046FEF7BCFA002201214FF460202E
:10345000CDE902028DF804108DF805108DF81010DA
:10346000009269462046FEF7C7FA4FF40040FDF788
:103470004EF90723012205212046FEF73DFB0121DD
:103480002046FEF7EBFA01212046FEF7DDFA204642
:10349000FEF7F7FA2046FEF7F9FA0028FAD120469F
:1034A000FEF7FBFA2046FEF7FDFA0028FAD10121CB
:1034B0002046FEF7FEFA06B010BD10B5214C8CB0C8
:1034C0002046FEF715FC1E4800214C3000901E4897
:1034D000CDE901010120CDE90301802005904000E4
:1034E000069080000790202008900002CDE9090195
:1034F00069462046FEF769FC01212046FEF78FFC55
:103500000CB010BD08B501210846FDF761F9012195
:103510004FF40170FDF765F92020ADF800000020A0
:103520008DF8030069460948FCF771FF08BD10B526
:10353000FFF7E8FFFFF7C1FFBDE810407EE700009E
:103540000024014008000240400000200008014023
:103550002DE9F041F64D0F46984616462946069C41
:1035600005F0EAFD20602946384605F0E5FD60607B
:103570002946304605F0E0FDA0602946404605F0AA
:10358000DBFDE060BDE8F0812DE9FF4F8DB0E84D37
:103590000F46164629461A9C05F0CEFD814629465F
:1035A000384605F0C9FD83462946304605F0C4FD7E
:1035B0000F90D4E900A00590A0680090E068DFF8C3
:1035C0007483DD4DDD4E19F0FF4F06906ED05946E5
:1035D000484605F053FC05F0B1FB04F021FB002246
:1035E000434605F09BF82A46334604F06DFE04F08E
:1035F0007DFD07465946084605F09EFD834649462F
:10360000084605F099FD594605F0C4FB05F096FB08
:1036100004F01AFD04F06AFD8346109805F08EFB55
:10362000C54AC64B05F07AF80022C24B04F04CFEA6
:103630000646049104F004FC80468946069805F08D
:103640007DFB054642464B46029105F067F88046F1
:103650008946584605F072FB42464B4605F084FA0F
:1036600004F044FD83463046049904F09DFC024674
:103670000B462846029905F051F806460D4651467C
:103680000F9805F061FE05F059FB32462B4605F018
:103690006BFA04F02BFD80468AF00040414605F0AD
:1036A00017FE05D2012011B0BDE8F08F0027A1E779
:1036B0000099059805F06EFB05F040FB0E460546A7
:1036C0004146084605F038FD81465946084605F052
:1036D00033FD494605F05EFB089005F02FFB8A4656
:1036E000814604F0B1FC2A46334605F015F901D2B3
:1036F0000220D8E74846514604F0A6FC06460D468F
:10370000584605F01BFB32462B4604F0DDFD04F065
:1037100049F904F0EBFC03904846514604F094FC50
:1037200006460D460121059805F0E8FE099005F0D2
:1037300005FB32462B4604F0F1FF0D460099064684
:10374000084605F0F9FC059981460790084605F002
:10375000F3FC01460B90089805F01CFB494605F068
:10376000F3FD05F0EBFA32462B4604F0ADFD04F014
:10377000BDFC4FF07E56B04203DCDFF8C4914845F3
:1037800001D905208FE7DFF8BCB1D84501D34D46FC
:1037900000E0354605F0D2FA04F004F980468A4686
:1037A0002946039805F0C8FC05F0C8FA424653467E
:1037B00004F0CEFC04F09AFC05F0C0FADFF874A126
:1037C0000022534604F0AAFF5B4A5C4B04F07CFDE8
:1037D00004F08CFC5C498046884201DCD84501D36A
:1037E000062060E70099099805F0A6FC05460B99AC
:1037F000089805F0A9FD0146079805F0A5FD2946A2
:1038000005F03CFBB04201DC484501D903204AE702
:1038100005F094FA04F0C6F804F068FC05F08EFA9E
:1038200000225546534604F079FF434A434B04F0C7
:103830004BFD00222B4605F0A5F804F057FC434948
:103840000546884202DC4248854201D904202AE725
:103850004146109805F078FD294605F09BFA3D4950
:103860000646884202DC3C48864201D907201AE716
:103870004046276105F068FD6061C4E90656804650
:10388000384605F05BFA354F00223B4604F046FF10
:10389000DFF8CC9000224B4604F016FDDFF8C4A000
:1038A0000022534605F06EF804F0A2FE05F0E4FB9A
:1038B0002064404605F042FA00223B4604F02EFF09
:1038C00000224B4604F000FD0022534604F040FC69
:1038D00004F08EFE05F0D0FB6064284605F02EFA59
:1038E00000223B4604F01AFF00224B4604F0ECFC99
:1038F0000022534604F02CFC04F07AFE05F0BCFBD9
:10390000A064304605F01AFA00223B4604F006FF98
:1039100000224B4604F0D8FC0022534604F018FC69
:1039200004F066FE05F0A8FBE0640020BBE60000A2
:1039300000002041008066404AD8124DFB2109401A
:10394000000080BF00008080000034430000074377
:10395000000007C30000B4420000B4C200409F4012
:1039600000E0704000709740FEF7D9BB472144F655
:103970002060FEF77EBD2DE9F0410024DFF8EC83E6
:10398000FB4E274608EB840006EB0415B0F88C00CC
:1039900000F2DC5080B2688005F086FBC5E90207C2
:1039A000641CE4B2082CEDD3BDE8F0812DE9FC5F86
:1039B00005460024FFF7F2F92878232808D1287952
:1039C000502805D16979EB48532902D0442967D0A2
:1039D000ADE0A97943297DD1E9794B297AD1297BB9
:1039E000212977D16978EA78303901EBC10303EBFB
:1039F000011102EB8101AA7802EB820200EB420284
:103A000011448EB2697AEA7A303901EBC10303EBD3
:103A1000011102EB8101AA7A02EB820200EB420063
:103A20000C1804F5FA70B0F57A7F37D8082E35D225
:103A3000287A2B2802D02D2800D16442204605F098
:103A40001BFB8046C94800EB860757F88C0F05F032
:103A500013FBC74901EB0615A9680E4605F069FC82
:103A6000414605F097F9C4493C60884202DCC349ED
:103A7000884200DA084605F0DFFA80B2688005F077
:103A800013FB314605F060FCBD4905F0F7F9E8602D
:103A9000FEF7B9FCBB49486001200870BDE8FC9FF7
:103AA000A979532943D1E979542940D1297A212987
:103AB0003DD16978EB78303901EBC10202EB01119D
:103AC000AA7803EB810102EB820200EB420008447A
:103AD00080B200E02BE00828E0D2A549002201EBEB
:103AE0000014E260A06805F0A7FA6080D6E72328FA
:103AF00004D050281FD0542845D047E0BBF1010F17
:103B000044D100262146601C84B26FF02F0207E0EA
:103B100006EB860302EB43031844641C86B2A4B28E
:103B2000285D08B15028F3D1601A042801D0012083
:103B300027E0022025E0BBF1020F27D10020A0469C
:103B4000641CA4B2DFF84092DFF840A200900FE0BE
:103B500005F0AAFA07464946009805F0EDFA3946FD
:103B600005F018F9514605F0EFFB641CA4B2009073
:103B7000285D08B15428EBD1A4EB08000528D6D164
:103B80000320834604E0BBF1030F05D0641CA4B2FC
:103B9000285D0028ABD181E72246641C4FF0000A63
:103BA000A4B26FF02F0308E00AEB8A0103EB410196
:103BB0000844641C1FFA80FAA4B2285D08B12128C9
:103BC000F2D1BAF5FA7F03D20AF596701FFA80FA9D
:103BD000A01A4FF0010B0528DAD1082E4FD26C49FC
:103BE000009888424BDC654FB84248DB42F21071C6
:103BF0008A4544D85D4800EB8600D0F88C0005F07B
:103C00003BFA009905F0C6F8014600905A488142F7
:103C100001DD009002E0B94200DA00970098BAF1A5
:103C2000140F0AD205F008FA514901EB0611488039
:103C3000009888600020C86021E005F0FDF94C493B
:103C400080B201EB0617019078805046A7F804A0D7
:103C500004F014FD00224F4B04F036FB80468946E9
:103C6000019805F021FAB96805F06EFB05F066F8D9
:103C700042464B4604F028FB04F038FAF860FF2E69
:103C800086D10026504604F0F9FC424B002204F095
:103C90001BFB89468046354800EB8600D0F88C0037
:103CA00000F2DC5005F0E8F9009005F0C5F982B2A9
:103CB0002F4800EB061710467A80A7F804A005F0FD
:103CC000F3F9B96805F040FB05F038F842464B4679
:103CD00004F0FAFA04F00AFA761CB6B2F860082E7C
:103CE000D9D355E770B503460021084602E0542AAF
:103CF00004D0491C5A5C002AF9D170BD5A18547876
:103D00001579303C04EB4406C6EBC41405EBC4053E
:103D10009478D2786426744302EB820204EB420268
:103D20002A44A2F5A052D03A824200DD1046091D75
:103D3000E0E710B504460120FFF772F84FF4806108
:103D4000154801F0DFFA2102FF221348FFF7ADF911
:103D50001148FFF7C7FF0B4988600F48FFF726FEA1
:103D6000BDE810400020FFF75BB8000050090020BC
:103D7000D0000020F0FDFFFF00101C450000FA43BA
:103D80000000A0404400002000002041000040420C
:103D900000401C45000034405005002002680B68BC
:103DA00003600A6070472DE9F04104460D4601208A
:103DB000FFF736F8AC4202DD20462C4605464FF4AC
:103DC0008066B710AC4216DC3146FB4801F09AFA27
:103DD00021023A46F848FFF768F9F748FEF7D8FF9E
:103DE000F6A0FEF7D5FFF448FEF7E6FFF3A0FEF7D6
:103DF000E3FF641CE6E7BDE8F0410020FFF710B8E0
:103E00002DE9FF478146EEA1FEF7C4F8EE4E00B360
:103E1000EEA0FEF7BDFFE9A0FEF7BAFFEDA0FEF7AA
:103E2000B7FF002406EB8400ECA1D0F88C20ED480D
:103E300000F0CEFFEB48FEF7ABFF641C082CF1DB73
:103E4000DEA0FEF7A5FFE8A0FEF7A2FFDE480830DF
:103E5000B6E0E7A14846FEF79DF8E74FE74D4FF083
:103E60000108002488B187F80080002605EB0617BA
:103E7000FC60B86805F0E0F8761C7880082EF5DB69
:103E8000DFA0FEF78BFFBDE8FF87E0A14846FEF705
:103E900081F8E0B103AADFA1484601F0D5F8002877
:103EA000F1D0039E05EB0615EC60A86805F0C4F898
:103EB00068803246DAA1CB4800F08AFFC948FEF795
:103EC0006DFF4FF48061C74801F01CFADBE7D8A111
:103ED0004846FEF75FF810B100F0A5FDD3E7D6A184
:103EE0004846FEF757F860B102AB01AAD4A1484694
:103EF00001F0AAF80028C6D0DDE90101FFF753FF61
:103F0000C1E7D2A14846FEF745F850B101AAD1A1B8
:103F1000484601F099F80028B5D087F8008001984C
:103F200019E0CFA14846FEF735F8B8B1CE48009069
:103F3000031F1A1FCDA1484601F086F80028A2D021
:103F4000C9492439D1E90702904204D04861486A3E
:103F500088613C7097E7FFF7ECFE94E7C7A14846FD
:103F6000FEF718F828B3C7A0FEF718FFDFF828936C
:103F70000024B0464FF4FA6708EB840005EB041602
:103F8000B0F88C0000F2DC5080B27080B78005F091
:103F90008BF8B16805F0D8F904F0D0FE00224B464A
:103FA00004F092F904F0A2F8641CF060082CE3DB42
:103FB00069E7BAA14846FDF7EDFF002886D0B9A011
:103FC000FEF7E6FE5FE770B57F4C94F8880038286E
:103FD00020D104F108010D46774801F00BF9227A4F
:103FE000242A03D01024744E30250AE02846BDE868
:103FF000704005E7355530190F3445708570C57030
:10400000E4B26D4801F01AF9A042F3D8BDE870405F
:104010006948CBE470BD10B50120FEF701FF40F206
:10402000FF70FFF7D3F8C0229F496748FFF7F2F807
:10403000BDE810400020FEF7F3BE10B58A4C243CCA
:104040002078012806D0FEF7DEF96168401AE168A1
:10405000884207D900202070FEF7D5F96060BDE8DE
:104060001040D8E710BD70B5634D7F4C2878243CD4
:1040700010B10A20A06070BDFEF7C5F92169401A91
:10408000A1688842F7D9FEF7BEF92061606A08B1DD
:10409000A06958B16069FFF74CFED4E90712606966
:1040A00091420ADA90420AD0401C11E001202870A7
:1040B000BDE870407DA0FEF76BBE904207D1616104
:1040C000606A0028D7D0A069401EA06170BD401E64
:1040D000606170BD03E08B4200D10270401C037828
:1040E000002BF8D17047002102E0472A05D0401C80
:1040F0000278002AF9D1501E70476FF02F0304E0B8
:1041000001EB810103EB4101114410F8012F232A37
:1041100001D0242AF4D108467047F8B5044601209E
:10412000FEF77EFE607824280DD02046FFF7DBFFE7
:104130000546401C02D0A07923283BD05EA0BDE8F4
:10414000F840FEF725BEA07800271F4E212818D082
:1041500045480090031F1A1F58A1204600F074FF25
:10416000002828D0404806F108052438D0E9071077
:1041700081420CD109024FF480722846FEF795FF68
:1041800012E086F88870FFF746FF51A0D7E781213B
:10419000284601F0D9F8611C284601F02BF820468A
:1041A00001F04CF830448771382086F88800FFF71A
:1041B00032FF97E098E0BBE0500500200D0A0000B8
:1041C0002444525321000000500900206D6F647593
:1041D0006C653A00626961733A0000002564202032
:1041E0000000000050010020707265436D643A00C9
:1041F000244453542100000028000020D000002057
:104200002332353550445354210000002444535484
:104210003A000000244453543A2564210000000071
:10422000232530336450445354210D0A000000000C
:104230002452535421000000245054473A000000F7
:10424000245054473A25642D2564210024444753C3
:104250003A000000244447533A256421000000003E
:10426000244447543A000000680000202444475486
:104270003A25642D25642C256421000024444A52EB
:104280002100000023323535503135303054323082
:104290003030210D0A0000000000594024474554E9
:1042A000412100004141410000F07F004047726F12
:1042B0007570446F6E652100450000003C24444742
:1042C000543A25642D25642C2564213E000000000D
:1042D00040434C454152205052455F434D44204F8E
:1042E0004B2100002BA02AE77B223C212046FFF730
:1042F000F1FE7D223E212046FFF7ECFE280706D185
:104300002802C11700EB11500013FEF75FFF204693
:1043100000F094FF401C82B229022046FEF72EFFD7
:1043200021A0FEF735FDBDE8F8400020FEF778BD7E
:10433000F8BD2DE9F84F88461FFA81FA1B498146DE
:1043400001EB091490B2A4F802A01646A08004F074
:1043500095F90022164B03F0B7FF05460F4650466D
:1043600004F0A2FEA16804F0EFFF04F0E7FC2A4687
:104370003B4603F0A9FF03F0B9FEE06043464A461E
:104380000CA11148009600F023FDBDE8F84F0E483F
:10439000FEF704BD40534554205052455F434D4401
:1043A000204F4B210000000041000000D000002001
:1043B00000003440232530336450253034645425C4
:1043C000303464210D0A0000500100202DE9FF4F18
:1043D000002681B09A4693468946374611F1FF4F31
:1043E00033D200246FF08608FE4D204604F044FED0
:1043F00003465A46494600950198FFF7C5F818B993
:10440000B44200DA26460127641E4445EDDAE7B1DE
:10441000304604F031FE03465A464946009501985D
:10442000FFF7B2F85FF0000405EB8400006C04F0C5
:10443000E7FD014652462046FFF77BFF641C042C33
:10444000F2DB012005B0BDE8F08F0020FAE730B5BF
:1044500087B00446E4A1FDF79DFD002830D002A9F5
:1044600005A8CDE9000104AB03AAE1A1204600F0B4
:10447000EBFD002824D0E3A0FEF78AFC059804F0A9
:10448000FBFD0546049804F0F7FD0446039804F08C
:10449000F3FD2A462146029BFFF798FF00284FF0C4
:1044A00001014FF005000DD0FDF7DBFD3220FDF7D7
:1044B00053FD00210520FDF7D4FD3220FDF74CFD12
:1044C00007B030BDFDF7CDFD3220FDF745FD0021E1
:1044D0000520FDF7C6FD3220FDF73EFD0121052038
:1044E000FDF7BFFD3220FDF737FD00210520FDF768
:1044F000B8FD3220FDF730FDC8A0FEF749FCDFE72C
:104500002DE9F34F41780078CA4D01EB002081B0CE
:1045100080B2E880A988814274D0288108400024B4
:10452000C64FDFF814A3E880012607F10B0B05F155
:104530001408A146E98806FA04F0084261D1A98866
:104540000842BE484FF480615DD000F0DBFE029867
:104550007328F3D158F8240000F070FE024658F892
:104560002410B64800F089FEB5A1B448FDF712FD4D
:1045700010F0FF0002D0384400F8019CB1A1AF4810
:10458000FDF708FDD0B1002240F22551AE48FCF7FE
:104590007CFA8AF800905946AC4800F02BFEAB49F3
:1045A000A64800F027FE8AF80060012240F225515B
:1045B000A548FCF76AFAA64806701FE0A5A19F4827
:1045C000FDF7E8FCD0B1002240F225519E48FCF7EF
:1045D0005CFA8AF8009059469C4800F00BFE9B4913
:1045E000964800F007FE8AF80060012240F225514B
:1045F0009548FCF74AFA9648022101704FF6FF7081
:10460000A88046E05AE000F07DFE0298732840D171
:1046100058F8240000F012FE024658F8241087488B
:1046200000F02BFE86A18548FDF7B4FC10F0FF00DA
:104630002FD0384483A10090FDF7ACFC90B18348A3
:10464000009900F0D7FD814800F0F8FD7F49014452
:104650007A4801F8019C7D4900F0CCFD7748FFF7CE
:10466000F6FE16E07BA10098FDF794FC88B1774830
:10467000009900F0BFFD754800F0E0FD734901446A
:104680006E4801F8019C714900F0B4FD6B48FFF7DA
:104690008DF9641CE4B2102CFFF44CAF2889A8807B
:1046A00001210520FDF7DDFC0A20FDF755FC03B0D4
:1046B0000021BDE8F04F0520FDF7D3BCBDE8FE8F1B
:1046C00070B55C4D474C6D1C0C3C2878E1788842F5
:1046D00003D168782179884207D06178E01CFFF720
:1046E0000FFFE07828702079687070BD10B5FDF775
:1046F0008AFE504C2169401A322808D3FDF783FE08
:1047000020613848BDE810400C38FDF7ECBD10BD05
:1047100070B5494C2078002823D04D4D28780128C9
:1047200006D002280BD0032809D004280BD00DE0B6
:104730004248FFF765FB4148FFF789FE06E03F4826
:10474000FFF734F902E03D48FFF7E7FC002028704E
:104750002070BDE87040012240F225513A48FCF734
:1047600094B970BD10B5FDF74EFE324CE168401AA9
:10477000B0F57A7F0DD9FDF746FEE060207808B1EC
:10478000002100E001210D20FDF76BFC2078C043E3
:10479000207010BD10B501210520FDF762FC00213D
:1047A0000D20FDF75EFC6420FDF7D6FB00210520FF
:1047B000FDF757FC01210D20FDF753FC6420FDF7A8
:1047C000CBFB01210520FDF74CFC00210D20FDF75E
:1047D00048FC6420FDF7C0FB00210520FDF741FCEB
:1047E000012139E0301A0020244B4D533A000000DB
:1047F000244B4D533A25642C25642C25642C2564C8
:104800002100000054727920746F2066696E642064
:104810006265737420706F733A0D0A0043616E27EE
:10482000742066696E64206265737420706F7321F2
:10483000212100006C0000202900002050050020EC
:104840005E000000240000000038014050010020FC
:104850002A000020230000000D20FDF702FC642048
:10486000FDF77AFB01210520FDF7FBFB00210D2060
:10487000FDF7F7FB6420FDF76FFB00210520FDF736
:10488000F0FB01210D20FDF7ECFBBDE8104064209A
:10489000FDF762BB62B67047FDF7A0BD10B54FF4DF
:1048A000E130FDF7CBFF012240F225516448FCF7CF
:1048B000ECF864A0FEF780FABDE8104065A0FEF7B2
:1048C0006DBA10B54FF4E130FEF758F8012240F20E
:1048D00025516448FCF7D9F8BDE8104062A0FEF706
:1048E00057BAFDF7AFBC2DE9F0410120FEF798FA69
:1048F000FEF7D7FAC02260496048FEF7D6FB5F4D4D
:104900005F4800262968814201D0C5E90006D5F834
:10491000AC0038280BD0002005EB8001401CC0B251
:10492000C1F88C600828F7D33820C5F8AC00DFF850
:104930005481002405EB840008EB0417D0F88C00A8
:1049400000F2DC50788004F097FBC7E90206641C93
:10495000E4B2082CEED3BDE8F0410020FEF760BAC7
:1049600010B5FDF796FB0021BDE810400520FDF7CE
:1049700078BB10B5FDF761FB0121BDE810400D20AB
:10498000FDF76FBBFDF74EBBFDF7F2BAFDF7E2BCDA
:1049900008B5FDF7DFFCFDF7EBFAFDF743FBFFF78A
:1049A000E8FFFFF7DDFFFEF7DFFFFFF79CFFFDF7F6
:1049B00049FCFFF786FFFFF771FFFDF70FFDFEF7DC
:1049C000D5FF62B630480090304B314A3149324809
:1049D000FEF7BEFDFEF7CFFFFDF7E8FCFFF7DAFEBE
:1049E000FFF7F1FAFFF7BEFEFFF792FEFFF73BFB82
:1049F000FFF77CFEFFF764FEFFF71FFB00F077F97F
:104A0000F0E7FEF794BD10B54FF4E130FDF765FF18
:104A1000012240F225512148FCF737F8BDE810404B
:104A20001FA0FEF7B8B9012080F313882048016861
:104A3000204A01F4E06111430160BFF34F8FFEE7AC
:104A400000480040756172743320636865636B20B1
:104A50006F6B2100233235355031353030543230D0
:104A60003030210000380140756172743120636874
:104A700065636B206F6B210000F07F005009002000
:104A8000388B3401D0000020301A002000003E4353
:104A9000000096420000D2420000DC420044004088
:104AA000756172743220636865636B206F6B2100DF
:104AB0000CED00E00400FA052DE9F0418C4C4FF4B8
:104AC0007A764FF496672078012818D0002540F2B6
:104AD000DC5802281CD0032836D004283FD00528F3
:104AE00048D006285DD0072807D182A0FFF788F9B3
:104AF00082480078012800D12570BDE8F081324657
:104B000039460520FFF715FC022020707CA017E035
:104B100080A0FEF73DF9608804F0C6FA01464346DE
:104B2000814A0020FFF752FC0028E5D07FA0FEF765
:104B30002FF964210120FDF740FB0320207075A0B0
:104B4000BDE8F041FEF724B97BA0FEF721F932461B
:104B50004FF4E1610520FFF7ECFB042008E079A0A9
:104B6000FEF716F9424639460120FFF7E2FB052021
:104B70002070C2E775A0FEF70BF9606830B101281C
:104B800006D0022809D0032805D108E0272000E03C
:104B90002820FFF7CEF80620EAE72920F9E72A20A7
:104BA000F7E76EA0FEF7F4F8324639460520FFF726
:104BB000C0FB0720DCE72DE9FC4107460E4600203C
:104BC000411ECDE9000138603160674A67A16B483A
:104BD00000F0FEF86948FEF7DBF869A1624800F0D2
:104BE000F7FA08B166A100E066A15F4800F0F0FAAC
:104BF000040022D064A100F0EBFA05001DD063A1EF
:104C000000F0E6FA20786A46252806D060A1204602
:104C100000F01AFA012810D101E05EA1F7E701AA1D
:104C20005EA1284600F010FA012806D10098B0F5E0
:104C3000000F02DB0199002902DA0020BDE8FC81A7
:104C40003860019830600120F8E72DE9FF472B48D4
:104C50000078002849D0DFF84891254C99F80000E9
:104C600098B34FF000084FF0FF30CDE9028003A960
:104C700002A8FFF7A0FF30B3029EA660039D16F0C6
:104C8000FF4F65601FD0681C1DD04649304604F0B8
:104C900053FA454904F07EF804F0CEF987B26780F4
:104CA000304604F04BF8CDE9005702460B463FA1D1
:104CB000324800F08DF83148FEF76AF80120207084
:104CC000FDF7A1FBE06089F80080207800280CD077
:104CD000FDF799FBE168401A40F6C411884204D3FD
:104CE000FFF7EAFEFDF78FFBE060BDE8FF87ACE76A
:104CF000C00000202452535421000000280000204E
:104D000063617272795F776F6F642073746570206E
:104D10003100000063617272795F776F6F64207396
:104D20007465702032000000000070416D6F766580
:104D300020746573740000007069636B2074657380
:104D4000740000007570207465737400636C617387
:104D500073696679207465737400000064726F7003
:104D600020746573740000005005002052617720A4
:104D7000696E7075743A2025730D0A005001002089
:104D80002544000044000000430000002A00000009
:104D9000442566002525442566000000432564005F
:104DA00029000020000020410000F0426469733DAA
:104DB000256620636D2C2063617465676F72793D91
:104DC00025642C206B6D735F793D25640D0A00000E
:104DD0000FB41CB5074B06AA7B44694600900598A2
:104DE00000F055FD0020694600F064FD1CBC5DF834
:104DF00014FB0000D90A000070B5044685690068FC
:104E0000C10601D5302600E02026C00707D070BDBE
:104E1000D4E9012130469047206A401C20626D1E73
:104E2000F6D570BD70B5044685690078C00707D116
:104E300070BDD4E9012120209047206A401C2062E7
:104E40006D1EF6D570BD70B50C460546012A05D01D
:104E50002878800600D5EA69002302E0012305E0F6
:104E60005B1C934202D2E05C0028F9D1A869E618E5
:104E7000C01AA861286A184428622846FFF7BCFFB8
:104E800004E0D5E9012114F8010B9047B442F8D3AE
:104E90002846FFF7C7FF70BD2DE9F0410646002404
:104EA00010687529314616A510D0AFF30080002890
:104EB00002DA404213A507E031688A0701D512A53E
:104EC00002E0490704D511A5012401E0AFF30080F9
:104ED00000210A2206F1240709E0B0FBF2FCB0FB36
:104EE000F2F302FB1C00303078541846491C0028AD
:104EF000F3D123462A463046BDE8F04100F059BAC6
:104F0000000000002D0000002B0000002000000029
:104F10002DE9F05F894604464FF0000ADFF824B11E
:104F2000FB44C0F820A02046E168884700287DD0D7
:104F3000252806D0D4E901219047206A401C206230
:104F4000F1E700255F462046E168884720280646AD
:104F500007DB312E05D2B81910F8200C08B1054333
:104F6000F1E7A80701D525F00405C4F81CA0002727
:104F7000C4F818A02A2E09D0304602F00CFD38B330
:104F800004EB8708303EC8F8186019E059F8041B94
:104F9000204604EB87029161E1688847012F0646AD
:104FA00018D1E069002820DA25F020051DE0D8F8A6
:104FB000180000EB800006EB40003038C8F81800FD
:104FC0002046E1688847064602F0E5FC0028EED15D
:104FD000012F0AD02E2E08D12046E16888477F1C79
:104FE0000646022F45F02005C4DBA069002803DA3D
:104FF000404245F00105A061E80701D025F0100509
:10500000A6B1A6F14100192802D8203645F4006562
:105010004A463146204625604D46FBF7C3F860B14D
:10502000012807D0ED1D25F0070000E007E000F1A2
:10503000080978E705F1040975E730467AE7206A40
:10504000BDE8F09F604600000FB400B58DB010A918
:10505000099000910B904FF0FF300A9000200C90C7
:10506000064878440690064878446A4607900F99A7
:1050700009A800F0CBFE0DB05DF814FBC70D0000D1
:10508000DF0D00002DE9FF5F1D464FF0FF3B91460D
:105090004FF000085F46D5E90146A96901987F1CD9
:1050A0008847296A824688470028F6D1BAF1FF3F2F
:1050B0000CD0002E24F4C06419DD600614D5BAF1BA
:1050C0002B0F09D0BAF12D0F0ED103E0584604B0D2
:1050D000BDE8F09F44F48064A96901987F1C88476B
:1050E000761E8246002E02DDBAF1300F03D0B9F1F0
:1050F000000F26D032E0A969761E01987F1C44F487
:1051000000748847002E824605DDBAF1780F06D07C
:10511000BAF1580F03D0B9F1000F10D01EE0B9F169
:10512000000F02D0B9F1100F18D1A969761E0198AD
:105130007F1C24F4007488478246102002E0082077
:1051400000E00A20814609E0A96908FB0908761EEB
:1051500001987F1C44F4007488478246002E05DDC8
:105160004946504600F0C1FB0028EDDAE969019894
:105170008847A00502D46FF00100A8E7E00725D119
:10518000600613D5600502D5C8F1000000E0404676
:1051900029680A1D2A600968220501D5087015E0F2
:1051A000220701D5088011E008600FE02868011D82
:1051B00029600068210502D580F8008006E02107FB
:1051C00002D5A0F8008001E0C0F8008038467EE7F4
:1051D00030B505460B462A4613F8014B12F8010B71
:1051E00008B1A042F8D01CB1002802D06D1CF1E734
:1051F000284630BD40EA0103024630B59B0710D176
:105200004FF0013400E008C208C91D1B9D4315EA98
:10521000C41FF8D013F0FF0102F8011B0DD01B0AC8
:10522000F8E711F8013B002B02F8013B05D011F81B
:10523000013B002B02F8013BF3D130BD10B5431CFC
:1052400002E010F8011B71B18107FAD14FF0013271
:1052500002C88C1A8C4314EAC211F9D0C01A0A068B
:1052600003D0C01E10BDC01A10BD0A0401D0801E9C
:1052700010BD0902FCD0401E10BD032A40F2308050
:1052800010F0030C00F0158011F8013BBCF1020F87
:10529000624498BF11F801CB00F8013B38BF11F808
:1052A000013BA2F1040298BF00F801CB38BF00F81F
:1052B000013B11F0030300F0D985083AC0F00880E3
:1052C00051F8043B083A51F804CBA0E80810F5E780
:1052D000121D5CBF51F8043B40F8043BAFF3008063
:1052E000D20724BF11F8013B11F801CB48BF11F8D8
:1052F000012B24BF00F8013B00F801CB48BF00F8A8
:10530000012B70474FF000020429C0F0128010F00A
:10531000030C00F01B80CCF1040CBCF1020F18BF91
:1053200000F8012BA8BF20F8022BA1EB0C0100F024
:105330000DB85FEAC17C24BF00F8012B00F8012BF7
:1053400048BF00F8012B70474FF0000200B513462C
:1053500094469646203922BFA0E80C50A0E80C5095
:10536000B1F12001BFF4F7AF090728BFA0E80C5046
:1053700048BF0CC05DF804EB890028BF40F8042B3F
:1053800008BF704748BF20F8022B11F0804F18BFAC
:1053900000F8012B704770477047704710B500F058
:1053A0009BFD006810BD10B5044600F095FD04603B
:1053B00010BD2DE9F0470D4699469246044600F18E
:1053C00024080168880604D5E06921F010012160F5
:1053D00000E00120A84201DD471B00E00027A16991
:1053E0007A1902EB0900081AA0612078C00602D4DD
:1053F0002046FFF701FD002608E0D4E901211AF854
:1054000006009047206A401C761C20624E45F4DB63
:105410002078C0060AD52046FFF7EEFC06E0D4E966
:10542000012130209047206A401C2062381EA7F1DD
:105430000107F4DC07E0D4E9012118F805009047E2
:10544000206A401C2062281EA5F10105F3DC2046DD
:10545000FFF7E8FC2078000602D50220BDE8F087BF
:105460000120FBE770472DE9FF4F0C461E464FF029
:10547000FF378BB0D2E90001DDF860800A908A46E0
:10548000C1F30A5505B93D46002108464FF000001A
:10549000BAF1000F00F4400005DA00EB80004FF491
:1054A000400101EA50004FEA9059B9F1010F00DDC7
:1054B000B9460A9850EA4A000ED044F61050A5F2B8
:1054C000FF3545432F14B8F1000F1ED07542291E39
:1054D0001EDDC9F100021CE0B8F1010F4FF0000021
:1054E00001D0302103E0F24305E02154401CB042DA
:1054F000FBDB30460022002121540B99C1F80880C3
:10550000C1E900200FB0BDE8F08FBD1B6D1CDEE7C8
:105510004A4600DA694206A800F02AFF06AB93E883
:10552000070003AB83E8070050460A9901F053FADD
:105530008DE80700A0F500501F3800900398002D5B
:105540000ADD42F21F014A460844002303A90390E2
:10555000684601F0FFFC09E0A0F500504A461F38FC
:10556000002303A90390684601F01EFD8DE80700A3
:105570000004000C03D04FF0FF30410800E010465B
:10558000B8F1000F03D00022009215461EE0751EF0
:1055900005D400F0A5FC303262556D1EF9D5B34636
:1055A0000122084302D000227F1C04E0207830282A
:1055B00001D100227F1E002A099784D01DE0112D01
:1055C00007DA00F08DFC303262556D1C50EA0102A2
:1055D000F5D1084302D00098C8B10EE00021681E42
:1055E00005E0235C625C63542254401E491C8142E6
:1055F000F7DBAB46A81B401E0990002004F80B0007
:105600000B98099AC0F80880C0E9002B7AE71126A8
:105610004FF0000857E72DE9F04F88460446D21DA9
:1056200022F0070191B0D1E90001CDE90A0101F0B2
:1056300007FE02460B98C00F01D02D2007E020681E
:10564000810701D52B2002E0202101EAC000032AB6
:10565000099001D0072A05DB03464146204600F0A9
:105660008DFC0BE12078800601D5E06900E0062082
:10567000B8F1650F814606D0B8F1660F18D0B8F1C1
:10568000670F70D131E00020B9F1110F009001DBFC
:10569000112301E009F101030AAA01A90CA8FFF7EF
:1056A000E2FEDDE90C70002609F10105834647E0C2
:1056B00001204B4600904FF000470AAA01A90CA810
:1056C000FFF7D1FEDDE90DB00C995D46002610B95B
:1056D00009F101000D18B9EB050003D4C0F1FF3644
:1056E00009F10105A5EB09002BE0B9F1010F01DA81
:1056F0004FF001090020B9F1110F0090484601DD7B
:10570000112300E003460AAA01A90CA8FFF7ABFE8B
:10571000DDE90C704D4600268346207800070AD448
:10572000AB4500DA5D4601A8012D04DD411911F8F1
:10573000011C302907D04F4502DA17F1040F04DAB3
:10574000012082460FE06D1EEEE7002F02DCED1B0C
:105750003E4403E0781CA84200DD7D1CB81B00F12C
:10576000010A4FF000472078000703D4AA4501DB67
:105770004FF0FF3A0021B7F1004F0DF143088DF8CB
:10578000431024D002202B23002F01DA7F422D2347
:105790000A21021EA0F1010000DC5FB197FBF1FCC1
:1057A00097FBF1F201FB1C7C17460CF1300C08F85A
:1057B00001CDEEE7A8F1010003702188090501D5AC
:1057C000452100E06521A0F1010800F8011C0998BD
:1057D0000FA9A1EB0807FF1D00B10120411901EB42
:1057E000EA70A1693844081A401EA0612078C006FA
:1057F00002D42046FFF700FB099828B1D4E9012123
:105800009047206A401C20622078C00622D520469E
:10581000FFF7F2FA1EE0002E04DBB34502DD01A81B
:10582000805D00E03020D4E901219047206A401CCF
:105830002062761CAAF101005FEA000A0AD100F09A
:1058400047FBC0680168405CD4E901219047206AA9
:10585000401C2062281EA5F10105DCDC07E0D4E92C
:10586000012118F8010B9047206A401C2062381E65
:10587000A7F10107F3DC2046FFF7D4FA032011B0AB
:1058800041E6000001694A1C02610878704700B5D2
:105890008FB0CDE901310021059105497944CDE969
:1058A000031011466846FFF733FB0FB000BD000040
:1058B000E5FFFFFF0A6802F8010B0A60704710B5A8
:1058C000436913B1AFF3008001E0FFF7BCFA012098
:1058D00010BD127800F124010A7000224A700122E2
:1058E000EDE711684FF0FF32E9E73A2800D230388F
:1058F00020F02002412A01D3A2F13700884201D3CF
:105900004FF0FF30704700002DE9FF4F06468BB087
:105910000878FF2806D0491C2D2805D000244FF018
:10592000000908E000200CE00124F8E709EB8903F6
:10593000491C00EB43090878FF28F7D114B1C9F1DD
:1059400000008146107800252C46AA4629462D28BD
:1059500001D02B2804D1521C2D2813D000208246C0
:105960008B461078FF280FD04FF0000C0A21521CF4
:10597000A5FB017804FB018105FB0C11C5194BEB5C
:105980000104EEE70120EAE7002108464FF000009D
:10599000BAF1000F02D000EB80004008C0F381573D
:1059A000012F01DD4FF0FF370E9955EA040009EB96
:1059B00001080BD04FF0020918F5FA7F16DA4FEA0A
:1059C000CA70002F706008DD012007E04FEACA703E
:1059D000C6E900B00FB0BDE8F08F0020306000F0E5
:1059E0007BFAC0F800901821084616E0B8F5FA7F57
:1059F00018DD002F02DAF748784401E0F6487844D1
:105A0000D0E90010C6E9001040EACA70706000F0EA
:105A100063FAC0F80090142108460FB0BDE8F04FBB
:105A200003F007BD002108464FF00000B8F1000167
:105A3000099002DAC7F1000200E03A4601DAC8F143
:105A4000000106A800F094FC06AB93E8070003AB46
:105A500083E8070044F23E005BEA040100905846E8
:105A600004D144F21E012C465D460091210C09042C
:105A7000014306D10099240444EA15442D04103949
:105A8000009104F07F41014306D10099240244EAC9
:105A900015642D020839009104F07041014306D1CC
:105AA0000099240144EA15742D01091F009104F0A6
:105AB0004041014306D10099A40044EA9574AD0029
:105AC000891E009104F00041084304D100986D192B
:105AD0006441401E00904FF001033A466846B8F119
